{
  "contractName": "_24K_Exchange",
  "abi": [
    {
      "inputs": [
        {
          "internalType": "contract _24K_Token",
          "name": "_24KTokenContract",
          "type": "address"
        }
      ],
      "stateMutability": "nonpayable",
      "type": "constructor"
    },
    {
      "anonymous": false,
      "inputs": [
        {
          "indexed": false,
          "internalType": "uint256",
          "name": "amount",
          "type": "uint256"
        }
      ],
      "name": "Bought",
      "type": "event"
    },
    {
      "anonymous": false,
      "inputs": [
        {
          "indexed": false,
          "internalType": "uint256",
          "name": "amount",
          "type": "uint256"
        }
      ],
      "name": "Sold",
      "type": "event"
    },
    {
      "inputs": [],
      "name": "buy",
      "outputs": [],
      "stateMutability": "payable",
      "type": "function"
    },
    {
      "inputs": [
        {
          "internalType": "uint256",
          "name": "amount",
          "type": "uint256"
        }
      ],
      "name": "sell",
      "outputs": [],
      "stateMutability": "nonpayable",
      "type": "function"
    }
  ],
  "bytecode": "0x608060405234801561001057600080fd5b506040516107c93803806107c98339818101604052602081101561003357600080fd5b8101908080519060200190929190505050806000806101000a81548173ffffffffffffffffffffffffffffffffffffffff021916908373ffffffffffffffffffffffffffffffffffffffff16021790555050610735806100946000396000f3fe6080604052600436106100295760003560e01c8063a6f2ae3a1461002e578063e4849b3214610038575b600080fd5b610036610073565b005b34801561004457600080fd5b506100716004803603602081101561005b57600080fd5b8101908080359060200190929190505050610360565b005b600034905060008060009054906101000a900473ffffffffffffffffffffffffffffffffffffffff1673ffffffffffffffffffffffffffffffffffffffff166370a08231306040518263ffffffff1660e01b8152600401808273ffffffffffffffffffffffffffffffffffffffff1673ffffffffffffffffffffffffffffffffffffffff16815260200191505060206040518083038186803b15801561011857600080fd5b505afa15801561012c573d6000803e3d6000fd5b505050506040513d602081101561014257600080fd5b81019080805190602001909291905050509050600082116101cb576040517f08c379a000000000000000000000000000000000000000000000000000000000815260040180806020018281038252601b8152602001807f596f75206e65656420746f2073656e6420736f6d65206574686572000000000081525060200191505060405180910390fd5b80821115610241576040517f08c379a00000000000000000000000000000000000000000000000000000000081526004018080602001828103825260208152602001807f4e6f7420656e6f75676820746f6b656e7320696e20746865207265736572766581525060200191505060405180910390fd5b6000809054906101000a900473ffffffffffffffffffffffffffffffffffffffff1673ffffffffffffffffffffffffffffffffffffffff1663a9059cbb33846040518363ffffffff1660e01b8152600401808373ffffffffffffffffffffffffffffffffffffffff1673ffffffffffffffffffffffffffffffffffffffff16815260200182815260200192505050602060405180830381600087803b1580156102e957600080fd5b505af11580156102fd573d6000803e3d6000fd5b505050506040513d602081101561031357600080fd5b8101908080519060200190929190505050507f4e08ba899977cf7d4c2964bce71c6b9a7ef76ee5166a4c1249a1e08016e33ef1826040518082815260200191505060405180910390a15050565b600081116103b9576040517f08c379a00000000000000000000000000000000000000000000000000000000081526004018080602001828103825260258152602001806106db6025913960400191505060405180910390fd5b60008060009054906101000a900473ffffffffffffffffffffffffffffffffffffffff1673ffffffffffffffffffffffffffffffffffffffff1663dd62ed3e33306040518363ffffffff1660e01b8152600401808373ffffffffffffffffffffffffffffffffffffffff1673ffffffffffffffffffffffffffffffffffffffff1681526020018273ffffffffffffffffffffffffffffffffffffffff1673ffffffffffffffffffffffffffffffffffffffff1681526020019250505060206040518083038186803b15801561048d57600080fd5b505afa1580156104a1573d6000803e3d6000fd5b505050506040513d60208110156104b757600080fd5b8101908080519060200190929190505050905081811015610540576040517f08c379a00000000000000000000000000000000000000000000000000000000081526004018080602001828103825260198152602001807f436865636b2074686520746f6b656e20616c6c6f77616e63650000000000000081525060200191505060405180910390fd5b6000809054906101000a900473ffffffffffffffffffffffffffffffffffffffff1673ffffffffffffffffffffffffffffffffffffffff166323b872dd3330856040518463ffffffff1660e01b8152600401808473ffffffffffffffffffffffffffffffffffffffff1673ffffffffffffffffffffffffffffffffffffffff1681526020018373ffffffffffffffffffffffffffffffffffffffff1673ffffffffffffffffffffffffffffffffffffffff1681526020018281526020019350505050602060405180830381600087803b15801561061c57600080fd5b505af1158015610630573d6000803e3d6000fd5b505050506040513d602081101561064657600080fd5b8101908080519060200190929190505050503373ffffffffffffffffffffffffffffffffffffffff166108fc839081150290604051600060405180830381858888f1935050505015801561069e573d6000803e3d6000fd5b507f92f64ca637d023f354075a4be751b169c1a8a9ccb6d33cdd0cb3520543995727826040518082815260200191505060405180910390a1505056fe596f75206e65656420746f2073656c6c206174206c6561737420736f6d6520746f6b656e73a264697066735822122076775e167b5110a8d1d503d496678ed8973691503a64e1bf7cb349b0d3abb96264736f6c63430006080033",
  "immutableReferences": {},
  "source": "// SPDX-License-Identifier: MIT\r\n\r\npragma solidity >=0.4.22 <0.9.0;\r\n\r\nimport \"./_24K_Token.sol\";\r\nimport \"./libraries/SafeMath.sol\";\r\n\r\ncontract _24K_Exchange {\r\n    // using SafeMath for uint256;\r\n\r\n    // struct Balance {\r\n    //     uint available;\r\n    //     uint reserved;\r\n    // }\r\n\r\n    // struct Order {\r\n    //     address token;\r\n    //     address account;\r\n    //     uint amount;\r\n    //     uint price;\r\n    //     bool buying;\r\n    // }\r\n\r\n    // uint public lastOrderId;\r\n\r\n    // mapping(address => Balance) private balances;\r\n    // mapping(address => mapping(address => Balance)) private tokenBalances;\r\n\r\n    // mapping(uint => Order) private ordersById;\r\n    // mapping(address => uint[]) private ordersByAccount;\r\n\r\n    // mapping(address => uint[]) buyOrderByToken;\r\n    // mapping(address => uint[]) sellOrderByToken;\r\n\r\n    // function deposit() payable public {\r\n    //     balances[msg.sender].available = balances[msg.sender].available.add(msg.value);\r\n    // }\r\n\r\n    // function withdraw(uint amount) public returns(bool) {\r\n    //     require(balances[msg.sender].available >= amount);\r\n\r\n    //     balances[msg.sender].available = balances[msg.sender].available.sub(amount);\r\n    //     msg.sender.transfer(amount);\r\n\r\n    // }\r\n    _24K_Token internal token;\r\n    event Bought(uint256 amount);\r\n    event Sold(uint256 amount);\r\n\r\n    constructor(_24K_Token _24KTokenContract) public {\r\n        token = _24KTokenContract;\r\n    }\r\n\r\n    function buy() payable public {\r\n        uint256 amountTobuy = msg.value;\r\n        uint256 dexBalance = token.balanceOf(address(this));\r\n        require(amountTobuy > 0, \"You need to send some ether\");\r\n        require(amountTobuy <= dexBalance, \"Not enough tokens in the reserve\");\r\n        token.transfer(msg.sender, amountTobuy);\r\n        emit Bought(amountTobuy);\r\n    }\r\n\r\n    function sell(uint256 amount) public {\r\n        require(amount > 0, \"You need to sell at least some tokens\");\r\n        uint256 allowance = token.allowance(msg.sender, address(this));\r\n        require(allowance >= amount, \"Check the token allowance\");\r\n        token.transferFrom(msg.sender, address(this), amount);\r\n        msg.sender.transfer(amount);\r\n        emit Sold(amount);\r\n    }\r\n}",
  "sourcePath": "D:/Projects/Token/_24KToken/contracts/_24K_Exchange.sol",
  "compiler": {
    "name": "solc",
    "version": "0.6.8+commit.0bbfe453.Emscripten.clang"
  },
  "schemaVersion": "3.4.1",
  "updatedAt": "2021-05-24T12:46:47.954Z",
  "networkType": "ethereum",
  "devdoc": {
    "methods": {}
  },
  "userdoc": {
    "methods": {}
  }
}